{
  "abi": [
    {
      "inputs": [
        {
          "internalType": "contract IIndexToken[]",
          "name": "_tokens",
          "type": "address[]"
        },
        {
          "internalType": "uint256[]",
          "name": "_targetWeights",
          "type": "uint256[]"
        }
      ],
      "stateMutability": "nonpayable",
      "type": "constructor"
    },
    {
      "anonymous": false,
      "inputs": [
        {
          "indexed": true,
          "internalType": "address",
          "name": "owner",
          "type": "address"
        },
        {
          "indexed": true,
          "internalType": "address",
          "name": "spender",
          "type": "address"
        },
        {
          "indexed": false,
          "internalType": "uint256",
          "name": "value",
          "type": "uint256"
        }
      ],
      "name": "Approval",
      "type": "event"
    },
    {
      "anonymous": false,
      "inputs": [
        {
          "indexed": true,
          "internalType": "address",
          "name": "from",
          "type": "address"
        },
        {
          "indexed": true,
          "internalType": "address",
          "name": "to",
          "type": "address"
        },
        {
          "indexed": false,
          "internalType": "uint256",
          "name": "value",
          "type": "uint256"
        }
      ],
      "name": "Transfer",
      "type": "event"
    },
    {
      "inputs": [
        {
          "internalType": "address",
          "name": "owner",
          "type": "address"
        },
        {
          "internalType": "address",
          "name": "spender",
          "type": "address"
        }
      ],
      "name": "allowance",
      "outputs": [
        {
          "internalType": "uint256",
          "name": "",
          "type": "uint256"
        }
      ],
      "stateMutability": "view",
      "type": "function"
    },
    {
      "inputs": [
        {
          "internalType": "address",
          "name": "spender",
          "type": "address"
        },
        {
          "internalType": "uint256",
          "name": "amount",
          "type": "uint256"
        }
      ],
      "name": "approve",
      "outputs": [
        {
          "internalType": "bool",
          "name": "",
          "type": "bool"
        }
      ],
      "stateMutability": "nonpayable",
      "type": "function"
    },
    {
      "inputs": [
        {
          "internalType": "address",
          "name": "account",
          "type": "address"
        }
      ],
      "name": "balanceOf",
      "outputs": [
        {
          "internalType": "uint256",
          "name": "",
          "type": "uint256"
        }
      ],
      "stateMutability": "view",
      "type": "function"
    },
    {
      "inputs": [],
      "name": "decimals",
      "outputs": [
        {
          "internalType": "uint8",
          "name": "",
          "type": "uint8"
        }
      ],
      "stateMutability": "view",
      "type": "function"
    },
    {
      "inputs": [
        {
          "internalType": "address",
          "name": "spender",
          "type": "address"
        },
        {
          "internalType": "uint256",
          "name": "subtractedValue",
          "type": "uint256"
        }
      ],
      "name": "decreaseAllowance",
      "outputs": [
        {
          "internalType": "bool",
          "name": "",
          "type": "bool"
        }
      ],
      "stateMutability": "nonpayable",
      "type": "function"
    },
    {
      "inputs": [],
      "name": "getTotalFundValueInEth",
      "outputs": [
        {
          "internalType": "uint256",
          "name": "",
          "type": "uint256"
        }
      ],
      "stateMutability": "view",
      "type": "function"
    },
    {
      "inputs": [
        {
          "internalType": "address",
          "name": "spender",
          "type": "address"
        },
        {
          "internalType": "uint256",
          "name": "addedValue",
          "type": "uint256"
        }
      ],
      "name": "increaseAllowance",
      "outputs": [
        {
          "internalType": "bool",
          "name": "",
          "type": "bool"
        }
      ],
      "stateMutability": "nonpayable",
      "type": "function"
    },
    {
      "inputs": [],
      "name": "name",
      "outputs": [
        {
          "internalType": "string",
          "name": "",
          "type": "string"
        }
      ],
      "stateMutability": "view",
      "type": "function"
    },
    {
      "inputs": [],
      "name": "oracle",
      "outputs": [
        {
          "internalType": "contract IOracle",
          "name": "",
          "type": "address"
        }
      ],
      "stateMutability": "view",
      "type": "function"
    },
    {
      "inputs": [],
      "name": "rebalance",
      "outputs": [],
      "stateMutability": "nonpayable",
      "type": "function"
    },
    {
      "inputs": [
        {
          "internalType": "uint256",
          "name": "fundTokenAmount",
          "type": "uint256"
        }
      ],
      "name": "redeem",
      "outputs": [],
      "stateMutability": "nonpayable",
      "type": "function"
    },
    {
      "inputs": [],
      "name": "subscribe",
      "outputs": [],
      "stateMutability": "payable",
      "type": "function"
    },
    {
      "inputs": [],
      "name": "symbol",
      "outputs": [
        {
          "internalType": "string",
          "name": "",
          "type": "string"
        }
      ],
      "stateMutability": "view",
      "type": "function"
    },
    {
      "inputs": [
        {
          "internalType": "contract IIndexToken",
          "name": "",
          "type": "address"
        }
      ],
      "name": "targetWeights",
      "outputs": [
        {
          "internalType": "uint256",
          "name": "",
          "type": "uint256"
        }
      ],
      "stateMutability": "view",
      "type": "function"
    },
    {
      "inputs": [
        {
          "internalType": "uint256",
          "name": "",
          "type": "uint256"
        }
      ],
      "name": "tokens",
      "outputs": [
        {
          "internalType": "contract IIndexToken",
          "name": "",
          "type": "address"
        }
      ],
      "stateMutability": "view",
      "type": "function"
    },
    {
      "inputs": [],
      "name": "totalSupply",
      "outputs": [
        {
          "internalType": "uint256",
          "name": "",
          "type": "uint256"
        }
      ],
      "stateMutability": "view",
      "type": "function"
    },
    {
      "inputs": [
        {
          "internalType": "address",
          "name": "to",
          "type": "address"
        },
        {
          "internalType": "uint256",
          "name": "amount",
          "type": "uint256"
        }
      ],
      "name": "transfer",
      "outputs": [
        {
          "internalType": "bool",
          "name": "",
          "type": "bool"
        }
      ],
      "stateMutability": "nonpayable",
      "type": "function"
    },
    {
      "inputs": [
        {
          "internalType": "address",
          "name": "from",
          "type": "address"
        },
        {
          "internalType": "address",
          "name": "to",
          "type": "address"
        },
        {
          "internalType": "uint256",
          "name": "amount",
          "type": "uint256"
        }
      ],
      "name": "transferFrom",
      "outputs": [
        {
          "internalType": "bool",
          "name": "",
          "type": "bool"
        }
      ],
      "stateMutability": "nonpayable",
      "type": "function"
    }
  ],
  "bytecode": {
    "object": "0x60806040523480156200001157600080fd5b50604051620022dc380380620022dc8339810160408190526200003491620003bb565b6040518060400160405280601581526020017f4d756c7469436861696e20496e6465782046756e640000000000000000000000815250604051806040016040528060038152602001624d434960e81b815250816003908162000097919062000528565b506004620000a6828262000528565b50505060005b82518110156200012e57818181518110620000cb57620000cb620005f4565b602002602001015160066000858481518110620000ec57620000ec620005f4565b60200260200101516001600160a01b03166001600160a01b03168152602001908152602001600020819055508080620001259062000620565b915050620000ac565b506000805b83518110156200017e57828181518110620001525762000152620005f4565b6020026020010151826200016791906200063c565b915080620001758162000620565b91505062000133565b5080606414620001de5760405162461bcd60e51b815260206004820152602160248201527f5461726765742077656967687473206d7573742061646420757020746f2031306044820152600360fc1b606482015260840160405180910390fd5b8251620001f39060059060208601906200024a565b506040516200020290620002b4565b604051809103906000f0801580156200021f573d6000803e3d6000fd5b50600780546001600160a01b0319166001600160a01b03929092169190911790555062000658915050565b828054828255906000526020600020908101928215620002a2579160200282015b82811115620002a257825182546001600160a01b0319166001600160a01b039091161782556020909201916001909101906200026b565b50620002b0929150620002c2565b5090565b61022780620020b583390190565b5b80821115620002b05760008155600101620002c3565b634e487b7160e01b600052604160045260246000fd5b604051601f8201601f191681016001600160401b03811182821017156200031a576200031a620002d9565b604052919050565b60006001600160401b038211156200033e576200033e620002d9565b5060051b60200190565b600082601f8301126200035a57600080fd5b81516020620003736200036d8362000322565b620002ef565b82815260059290921b840181019181810190868411156200039357600080fd5b8286015b84811015620003b0578051835291830191830162000397565b509695505050505050565b60008060408385031215620003cf57600080fd5b82516001600160401b0380821115620003e757600080fd5b818501915085601f830112620003fc57600080fd5b815160206200040f6200036d8362000322565b82815260059290921b840181019181810190898411156200042f57600080fd5b948201945b83861015620004665785516001600160a01b0381168114620004565760008081fd5b8252948201949082019062000434565b918801519196509093505050808211156200048057600080fd5b506200048f8582860162000348565b9150509250929050565b600181811c90821680620004ae57607f821691505b602082108103620004cf57634e487b7160e01b600052602260045260246000fd5b50919050565b601f8211156200052357600081815260208120601f850160051c81016020861015620004fe5750805b601f850160051c820191505b818110156200051f578281556001016200050a565b5050505b505050565b81516001600160401b03811115620005445762000544620002d9565b6200055c8162000555845462000499565b84620004d5565b602080601f8311600181146200059457600084156200057b5750858301515b600019600386901b1c1916600185901b1785556200051f565b600085815260208120601f198616915b82811015620005c557888601518255948401946001909101908401620005a4565b5085821015620005e45787850151600019600388901b60f8161c191681555b5050505050600190811b01905550565b634e487b7160e01b600052603260045260246000fd5b634e487b7160e01b600052601160045260246000fd5b6000600182016200063557620006356200060a565b5060010190565b808201808211156200065257620006526200060a565b92915050565b611a4d80620006686000396000f3fe6080604052600436106101295760003560e01c80637dc0d1d0116100a5578063a9059cbb11610074578063db006a7511610059578063db006a751461035a578063dbb8bd1a1461037a578063dd62ed3e1461038f57600080fd5b8063a9059cbb1461030d578063bc97c95e1461032d57600080fd5b80637dc0d1d0146102a35780638f449a05146102d057806395d89b41146102d8578063a457c2d7146102ed57600080fd5b8063313ce567116100fc5780634f64b2be116100e15780634f64b2be1461020457806370a08231146102495780637d7c2a1c1461028c57600080fd5b8063313ce567146101c857806339509351146101e457600080fd5b806306fdde031461012e578063095ea7b31461015957806318160ddd1461018957806323b872dd146101a8575b600080fd5b34801561013a57600080fd5b506101436103e2565b6040516101509190611748565b60405180910390f35b34801561016557600080fd5b506101796101743660046117d9565b610474565b6040519015158152602001610150565b34801561019557600080fd5b506002545b604051908152602001610150565b3480156101b457600080fd5b506101796101c3366004611805565b61048e565b3480156101d457600080fd5b5060405160128152602001610150565b3480156101f057600080fd5b506101796101ff3660046117d9565b6104b2565b34801561021057600080fd5b5061022461021f366004611846565b6104fe565b60405173ffffffffffffffffffffffffffffffffffffffff9091168152602001610150565b34801561025557600080fd5b5061019a61026436600461185f565b73ffffffffffffffffffffffffffffffffffffffff1660009081526020819052604090205490565b34801561029857600080fd5b506102a1610535565b005b3480156102af57600080fd5b506007546102249073ffffffffffffffffffffffffffffffffffffffff1681565b6102a16109b4565b3480156102e457600080fd5b50610143610b71565b3480156102f957600080fd5b506101796103083660046117d9565b610b80565b34801561031957600080fd5b506101796103283660046117d9565b610c37565b34801561033957600080fd5b5061019a61034836600461185f565b60066020526000908152604090205481565b34801561036657600080fd5b506102a1610375366004611846565b610c45565b34801561038657600080fd5b5061019a610e25565b34801561039b57600080fd5b5061019a6103aa366004611883565b73ffffffffffffffffffffffffffffffffffffffff918216600090815260016020908152604080832093909416825291909152205490565b6060600380546103f1906118bc565b80601f016020809104026020016040519081016040528092919081815260200182805461041d906118bc565b801561046a5780601f1061043f5761010080835404028352916020019161046a565b820191906000526020600020905b81548152906001019060200180831161044d57829003601f168201915b5050505050905090565b600033610482818585611089565b60019150505b92915050565b60003361049c858285611209565b6104a78585856112c6565b506001949350505050565b33600081815260016020908152604080832073ffffffffffffffffffffffffffffffffffffffff8716845290915281205490919061048290829086906104f9908790611938565b611089565b6005818154811061050e57600080fd5b60009182526020909120015473ffffffffffffffffffffffffffffffffffffffff16905081565b600061053f610e25565b905060005b6005548110156109b0576007546005805460009273ffffffffffffffffffffffffffffffffffffffff16916341976e0991859081106105855761058561194b565b60009182526020909120015460405160e083901b7fffffffff0000000000000000000000000000000000000000000000000000000016815273ffffffffffffffffffffffffffffffffffffffff9091166004820152602401602060405180830381865afa1580156105fa573d6000803e3d6000fd5b505050506040513d601f19601f8201168201806040525081019061061e919061197a565b90506000600583815481106106355761063561194b565b60009182526020918290200154604080517f9816f473000000000000000000000000000000000000000000000000000000008152905173ffffffffffffffffffffffffffffffffffffffff90921692639816f473926004808401938290030181865afa1580156106a9573d6000803e3d6000fd5b505050506040513d601f19601f820116820180604052508101906106cd9190611993565b6040517f70a0823100000000000000000000000000000000000000000000000000000000815230600482015273ffffffffffffffffffffffffffffffffffffffff91909116906370a0823190602401602060405180830381865afa158015610739573d6000803e3d6000fd5b505050506040513d601f19601f8201168201806040525081019061075d919061197a565b90506000670de0b6b3a764000061077483856119b0565b61077e91906119c7565b905060006064600660006005888154811061079b5761079b61194b565b600091825260208083209091015473ffffffffffffffffffffffffffffffffffffffff1683528201929092526040019020546107d790886119b0565b6107e191906119c7565b9050808211156108c15760006107f78284611a02565b905060008561080e83670de0b6b3a76400006119b0565b61081891906119c7565b90506005878154811061082d5761082d61194b565b6000918252602090912001546040517fe4849b320000000000000000000000000000000000000000000000000000000081526004810183905273ffffffffffffffffffffffffffffffffffffffff9091169063e4849b3290602401600060405180830381600087803b1580156108a257600080fd5b505af11580156108b6573d6000803e3d6000fd5b505050505050610999565b808210156109995760006108d58383611a02565b90506000856108ec83670de0b6b3a76400006119b0565b6108f691906119c7565b90506005878154811061090b5761090b61194b565b6000918252602082200154604080517fa6f2ae3a000000000000000000000000000000000000000000000000000000008152905173ffffffffffffffffffffffffffffffffffffffff9092169263a6f2ae3a928592600480820193929182900301818588803b15801561097d57600080fd5b505af1158015610991573d6000803e3d6000fd5b505050505050505b5050505080806109a890611a15565b915050610544565b5050565b60003411610a095760405162461bcd60e51b815260206004820152601e60248201527f4e6f20457468657220726563656976656420746f20737562736372696265000060448201526064015b60405180910390fd5b6000610a13610e25565b905060005b600554811015610b3757600060646006600060058581548110610a3d57610a3d61194b565b600091825260208083209091015473ffffffffffffffffffffffffffffffffffffffff168352820192909252604001902054610a7990346119b0565b610a8391906119c7565b905060058281548110610a9857610a9861194b565b6000918252602082200154604080517fa6f2ae3a000000000000000000000000000000000000000000000000000000008152905173ffffffffffffffffffffffffffffffffffffffff9092169263a6f2ae3a928592600480820193929182900301818588803b158015610b0a57600080fd5b505af1158015610b1e573d6000803e3d6000fd5b5050505050508080610b2f90611a15565b915050610a18565b5060008115610b635781610b4a60025490565b610b5490346119b0565b610b5e91906119c7565b610b65565b345b90506109b033826114e7565b6060600480546103f1906118bc565b33600081815260016020908152604080832073ffffffffffffffffffffffffffffffffffffffff8716845290915281205490919083811015610c2a5760405162461bcd60e51b815260206004820152602560248201527f45524332303a2064656372656173656420616c6c6f77616e63652062656c6f7760448201527f207a65726f0000000000000000000000000000000000000000000000000000006064820152608401610a00565b6104a78286868403611089565b6000336104828185856112c6565b33600090815260208190526040902054811115610cca5760405162461bcd60e51b815260206004820152602260248201527f496e73756666696369656e742066756e6420746f6b656e7320746f207265646560448201527f656d0000000000000000000000000000000000000000000000000000000000006064820152608401610a00565b610cd433826115c0565b60005b600554811015610df857600060646006600060058581548110610cfc57610cfc61194b565b600091825260208083209091015473ffffffffffffffffffffffffffffffffffffffff168352820192909252604001902054610d3890856119b0565b610d4291906119c7565b905060058281548110610d5757610d5761194b565b6000918252602090912001546040517fe4849b320000000000000000000000000000000000000000000000000000000081526004810183905273ffffffffffffffffffffffffffffffffffffffff9091169063e4849b3290602401600060405180830381600087803b158015610dcc57600080fd5b505af1158015610de0573d6000803e3d6000fd5b50505050508080610df090611a15565b915050610cd7565b5060405133904780156108fc02916000818181858888f193505050501580156109b0573d6000803e3d6000fd5b600080805b600554811015611083576007546005805460009273ffffffffffffffffffffffffffffffffffffffff16916341976e099185908110610e6b57610e6b61194b565b60009182526020909120015460405160e083901b7fffffffff0000000000000000000000000000000000000000000000000000000016815273ffffffffffffffffffffffffffffffffffffffff9091166004820152602401602060405180830381865afa158015610ee0573d6000803e3d6000fd5b505050506040513d601f19601f82011682018060405250810190610f04919061197a565b9050600060058381548110610f1b57610f1b61194b565b60009182526020918290200154604080517f9816f473000000000000000000000000000000000000000000000000000000008152905173ffffffffffffffffffffffffffffffffffffffff90921692639816f473926004808401938290030181865afa158015610f8f573d6000803e3d6000fd5b505050506040513d601f19601f82011682018060405250810190610fb39190611993565b6040517f70a0823100000000000000000000000000000000000000000000000000000000815230600482015273ffffffffffffffffffffffffffffffffffffffff91909116906370a0823190602401602060405180830381865afa15801561101f573d6000803e3d6000fd5b505050506040513d601f19601f82011682018060405250810190611043919061197a565b9050670de0b6b3a764000061105882846119b0565b61106291906119c7565b61106c9085611938565b93505050808061107b90611a15565b915050610e2a565b50919050565b73ffffffffffffffffffffffffffffffffffffffff83166111115760405162461bcd60e51b8152602060048201526024808201527f45524332303a20617070726f76652066726f6d20746865207a65726f2061646460448201527f72657373000000000000000000000000000000000000000000000000000000006064820152608401610a00565b73ffffffffffffffffffffffffffffffffffffffff821661119a5760405162461bcd60e51b815260206004820152602260248201527f45524332303a20617070726f766520746f20746865207a65726f20616464726560448201527f73730000000000000000000000000000000000000000000000000000000000006064820152608401610a00565b73ffffffffffffffffffffffffffffffffffffffff83811660008181526001602090815260408083209487168084529482529182902085905590518481527f8c5be1e5ebec7d5bd14f71427d1e84f3dd0314c0f7b2291e5b200ac8c7c3b92591015b60405180910390a3505050565b73ffffffffffffffffffffffffffffffffffffffff8381166000908152600160209081526040808320938616835292905220547fffffffffffffffffffffffffffffffffffffffffffffffffffffffffffffffff81146112c057818110156112b35760405162461bcd60e51b815260206004820152601d60248201527f45524332303a20696e73756666696369656e7420616c6c6f77616e63650000006044820152606401610a00565b6112c08484848403611089565b50505050565b73ffffffffffffffffffffffffffffffffffffffff831661134f5760405162461bcd60e51b815260206004820152602560248201527f45524332303a207472616e736665722066726f6d20746865207a65726f20616460448201527f64726573730000000000000000000000000000000000000000000000000000006064820152608401610a00565b73ffffffffffffffffffffffffffffffffffffffff82166113d85760405162461bcd60e51b815260206004820152602360248201527f45524332303a207472616e7366657220746f20746865207a65726f206164647260448201527f65737300000000000000000000000000000000000000000000000000000000006064820152608401610a00565b73ffffffffffffffffffffffffffffffffffffffff8316600090815260208190526040902054818110156114745760405162461bcd60e51b815260206004820152602660248201527f45524332303a207472616e7366657220616d6f756e742065786365656473206260448201527f616c616e636500000000000000000000000000000000000000000000000000006064820152608401610a00565b73ffffffffffffffffffffffffffffffffffffffff848116600081815260208181526040808320878703905593871680835291849020805487019055925185815290927fddf252ad1be2c89b69c2b068fc378daa952ba7f163c4a11628f55a4df523b3ef910160405180910390a36112c0565b73ffffffffffffffffffffffffffffffffffffffff821661154a5760405162461bcd60e51b815260206004820152601f60248201527f45524332303a206d696e7420746f20746865207a65726f2061646472657373006044820152606401610a00565b806002600082825461155c9190611938565b909155505073ffffffffffffffffffffffffffffffffffffffff8216600081815260208181526040808320805486019055518481527fddf252ad1be2c89b69c2b068fc378daa952ba7f163c4a11628f55a4df523b3ef910160405180910390a35050565b73ffffffffffffffffffffffffffffffffffffffff82166116495760405162461bcd60e51b815260206004820152602160248201527f45524332303a206275726e2066726f6d20746865207a65726f2061646472657360448201527f73000000000000000000000000000000000000000000000000000000000000006064820152608401610a00565b73ffffffffffffffffffffffffffffffffffffffff8216600090815260208190526040902054818110156116e55760405162461bcd60e51b815260206004820152602260248201527f45524332303a206275726e20616d6f756e7420657863656564732062616c616e60448201527f63650000000000000000000000000000000000000000000000000000000000006064820152608401610a00565b73ffffffffffffffffffffffffffffffffffffffff83166000818152602081815260408083208686039055600280548790039055518581529192917fddf252ad1be2c89b69c2b068fc378daa952ba7f163c4a11628f55a4df523b3ef91016111fc565b600060208083528351808285015260005b8181101561177557858101830151858201604001528201611759565b5060006040828601015260407fffffffffffffffffffffffffffffffffffffffffffffffffffffffffffffffe0601f8301168501019250505092915050565b73ffffffffffffffffffffffffffffffffffffffff811681146117d657600080fd5b50565b600080604083850312156117ec57600080fd5b82356117f7816117b4565b946020939093013593505050565b60008060006060848603121561181a57600080fd5b8335611825816117b4565b92506020840135611835816117b4565b929592945050506040919091013590565b60006020828403121561185857600080fd5b5035919050565b60006020828403121561187157600080fd5b813561187c816117b4565b9392505050565b6000806040838503121561189657600080fd5b82356118a1816117b4565b915060208301356118b1816117b4565b809150509250929050565b600181811c908216806118d057607f821691505b602082108103611083577f4e487b7100000000000000000000000000000000000000000000000000000000600052602260045260246000fd5b7f4e487b7100000000000000000000000000000000000000000000000000000000600052601160045260246000fd5b8082018082111561048857610488611909565b7f4e487b7100000000000000000000000000000000000000000000000000000000600052603260045260246000fd5b60006020828403121561198c57600080fd5b5051919050565b6000602082840312156119a557600080fd5b815161187c816117b4565b808202811582820484141761048857610488611909565b6000826119fd577f4e487b7100000000000000000000000000000000000000000000000000000000600052601260045260246000fd5b500490565b8181038181111561048857610488611909565b60007fffffffffffffffffffffffffffffffffffffffffffffffffffffffffffffffff8203611a4657611a46611909565b5060010190566080604052600080546001600160a01b03191673b4c4a493ab6356497713a78ffa6c60fb53517c6317905534801561003657600080fd5b506101e1806100466000396000f3fe608060405234801561001057600080fd5b506004361061002b5760003560e01c806341976e0914610030575b600080fd5b61004361003e366004610135565b610055565b60405190815260200160405180910390f35b600073ffffffffffffffffffffffffffffffffffffffff821673326c977e6efc84e512bb9c30f76e30c160ed06fb036101265760008060009054906101000a900473ffffffffffffffffffffffffffffffffffffffff1673ffffffffffffffffffffffffffffffffffffffff1663feaf968c6040518163ffffffff1660e01b815260040160a060405180830381865afa1580156100f6573d6000803e3d6000fd5b505050506040513d601f19601f8201168201806040525081019061011a9190610191565b50919695505050505050565b50670de0b6b3a7640000919050565b60006020828403121561014757600080fd5b813573ffffffffffffffffffffffffffffffffffffffff8116811461016b57600080fd5b9392505050565b805169ffffffffffffffffffff8116811461018c57600080fd5b919050565b600080600080600060a086880312156101a957600080fd5b6101b286610172565b94506020860151935060408601519250606086015191506101d560808701610172565b9050929550929590935056",
    "linkReferences": {}
  },
  "methodIdentifiers": {
    "allowance(address,address)": "dd62ed3e",
    "approve(address,uint256)": "095ea7b3",
    "balanceOf(address)": "70a08231",
    "decimals()": "313ce567",
    "decreaseAllowance(address,uint256)": "a457c2d7",
    "getTotalFundValueInEth()": "dbb8bd1a",
    "increaseAllowance(address,uint256)": "39509351",
    "name()": "06fdde03",
    "oracle()": "7dc0d1d0",
    "rebalance()": "7d7c2a1c",
    "redeem(uint256)": "db006a75",
    "subscribe()": "8f449a05",
    "symbol()": "95d89b41",
    "targetWeights(address)": "bc97c95e",
    "tokens(uint256)": "4f64b2be",
    "totalSupply()": "18160ddd",
    "transfer(address,uint256)": "a9059cbb",
    "transferFrom(address,address,uint256)": "23b872dd"
  },
  "id": 29
}